:020000040800F2
:10000000080900209D010008C33F0008A73F000821
:10001000AB3F0008AF3F0008B33F000800000000FE
:10002000000000000000000000000000B73F0008D2
:10003000BB3F000800000000BF3F00089D390008DA
:10004000B7010008B7010008B7010008B7010008B0
:10005000B7010008B7010008B7010008B7010008A0
:10006000B7010008B7010008B7010008973F000872
:10007000B7010008B7010008B7010008B701000880
:10008000B70100089F3F0008B7010008B70100084A
:10009000B7010008B7010008B7010008B701000860
:1000A000B7010008B7010008B7010008B701000850
:1000B000B7010008B7010008B7010008B701000840
:1000C000B7010008B7010008B7010008B701000830
:1000D000B7010008B7010008B7010008B701000820
:1000E000B7010008B7010008B7010008B701000810
:1000F000B7010008B7010008B7010008B701000800
:10010000B7010008B7010008B7010008B7010008EF
:10011000B7010008B7010008B7010008B7010008DF
:10012000B7010008B7010008B7010008B7010008CF
:10013000B7010008B7010008B7010008B7010008BF
:10014000B7010008B7010008B7010008B7010008AF
:10015000B7010008B7010008B7010008B70100089F
:10016000B7010008B7010008B7010008B70100088F
:10017000B7010008B7010008B7010008B70100087F
:10018000B7010008B7010008DFF80CD004F038FE12
:1001900000480047BF38000808090020064880478B
:1001A00006480047FEE7FEE7FEE7FEE7FEE7FEE75C
:1001B000FEE7FEE7FEE7FEE79B0200088901000874
:1001C0000CB50020019000907548006840F4803024
:1001D0007349086000BF7248006800F40030009066
:1001E0000198401C0190009818B90198B0F5A04FF3
:1001F000F1D16B48006810F4003F02D0012000905C
:1002000001E0002000900098012845D1644840306A
:10021000006840F0805062494031086061480068E1
:1002200040F440405F4908605D48083000685C4920
:10023000083108600846006840F40040086008463D
:10024000006840F4A05008605748091F0860081F64
:10025000006840F08070091F086000BF50480068C7
:1002600010F0007FFAD040F20570504908604C4809
:100270000830006820F0030049490831086008464A
:10028000006840F00200086000BF45480830006880
:1002900000F00C000828F8D10CBD10B544480068E7
:1002A00040F47000424908603D48006840F0010099
:1002B0003B49086000203A49083108603848006826
:1002C0003C490840364908603B48091D0860081F42
:1002D000006820F48020091F0860002030490C319C
:1002E0000860FFF76DFF4FF000603149803908600A
:1002F00010BD70B500200022022300240221284DE9
:1003000008352D6805F00C0020B1042806D0082817
:1003100034D107E0294D2A4E356033E0294D284E6F
:1003200035602FE01E4D2D1D2D68C5F380541C4DEA
:100330002D1D2D6805F03F0154B1224DB5FBF1F59F
:10034000174E361D3668C6F3881605FB06F209E01F
:100350001A4DB5FBF1F5124E361D3668C6F38816F8
:1003600005FB06F20E4D2D1D2D68C5F301456D1CD4
:100370006B00B2FBF3F5124E356003E00F4D104EEB
:10038000356000BF00BF064D08352D68C5F3031565
:100390000D4E705D0A4D2D68C540094E356070BD2B
:1003A000003802400070004008544007003C024002
:1003B00088ED00E0FFFFF6FE103000240024F4007A
:1003C0000000002000127A0004000020334901439D
:1003D000334A1160704770B5002100230F22C478A2
:1003E00024B32F4C246804F4E064C4F5E064C4F33F
:1003F0000721C1F10404E3B20A4144789C40E1B210
:100400008478144021430C07210E264C0578615551
:10041000047804F01F050124AC4005786D114FF0FD
:10042000E02606EB8505C5F8004109E0047804F0F4
:100430001F040125A5401C4C0678761144F826506F
:1004400070BD1A4A0A400243154B1B1F1A607047C1
:1004500039B1134A121D12680243114B1B1D1A6059
:1004600006E00F4A121D126882430D4B1B1D1A60D5
:100470007047042808D14FF0E021096941F00401D8
:100480004FF0E022116107E04FF0E021096921F00F
:1004900004014FF0E0221161704700000000FA05EE
:1004A0000CED00E000E400E080E100E080FFFF1FD1
:1004B000F948006840F00100F74908600020F6495B
:1004C00008310860F4480068F4490840F2490860BF
:1004D000F348091D0860F348EF4984310860F0488B
:1004E0001038091D0860EC48006820F48020EA49B3
:1004F00008600020E8490C310860E7498C31086049
:1005000070470021E44A921C117011460870704730
:1005100010B501460022002300204A11012A02D111
:10052000DD4C236808E0022A03D1DB4C70342368D9
:1005300002E0D94C7434236801F01F020124944076
:100540001C4201D0012000E0002010BD38B5002081
:1005500000900024002500BF3120FFF7D9FF054699
:100560000098401C00900098B0F5A04F01D0002DDD
:10057000F2D03120FFF7CCFF08B1012400E00024C5
:10058000204638BD01460020C34A106820F0F8001C
:1005900040EAC10010607047C349086070470021FD
:1005A000BD4A703211701170012802D004280AD19E
:1005B00004E00121B84A7032117005E00521B64A05
:1005C0007032117000E000BF00BF7047B74908608B
:1005D000704770B5049C41EA82150126C6EB5306AC
:1005E00045EA0645054345EA0465AB4E361D3560D0
:1005F00070BDAD4908667047820142EA0172A64BA0
:1006000084331A607047A8498866704710B5830123
:1006100043EA016343EA02739F4C8834236010BDB0
:10062000A14908677047A049C86470470246002086
:10063000994B0833186820F0EC6042EA0103184334
:10064000954B08331860704702460020924B0833E0
:10065000186820F0784042EA010318438E4B0833B3
:1006600018607047014600208B4A0832106820F05D
:10067000030008431060704787480830006800F0A6
:100680000C00704701460020834A0832106820F0B1
:10069000F000084310607047014600207E4A08328F
:1006A000106820F4E05008431060704701460020B5
:1006B000794A0832106820F4604040EAC1001060B6
:1006C0007047F0B5002100220024022500260223F5
:1006D000714F08373F6807F00C0121B1042905D09C
:1006E000082937D105E0724F076036E0714F076087
:1006F00033E0694F3F1D3F68C7F38056664F3F1D8B
:100700003F6807F03F036EB16A4FB7FBF3F7DFF8BE
:1007100088C10CF1040CDCF800C0CCF3881C07FB8A
:100720000CF40CE0624FB7FBF3F7DFF86CC10CF18F
:10073000040CDCF800C0CCF3881C07FB0CF4564F0B
:100740003F1D3F68C7F301477F1C7D00B4FBF5F7F1
:10075000076002E0564F076000BF00BF4E4F0837EA
:100760003F6807F0F0010909534F7A5C0768D740EA
:100770004760494F08373F6807F4E051890A4E4FF8
:100780007A5C4768D7408760434F08373F6807F473
:100790006041490B484F7A5C4768D740C760F0BD5D
:1007A000002100F44072B2F5407F0AD13A4A083283
:1007B000116821F4F811414A02401143364A0832C7
:1007C0001160354A70321268C0F30B031A43324B82
:1007D00070331A60704735494439086070473349AF
:1007E000403908607047364908607047014600206C
:1007F000294A8C32106820F01F004A1E1043264AF6
:100800008C321060704701460020234A8C321068F9
:1008100020F4F8504A1E40EA02201F4A8C32106031
:100820007047014600201C4A8C32106820F44010AA
:1008300008431060704701460020174A8C32106848
:1008400020F4400008431060704701460020124A1F
:100850008C32106820F4403008431060704719490A
:100860000860704739B10C4A3032126802430A4BB3
:1008700030331A6006E0084A303212688243064B71
:1008800030331A607047F9B1034A343212680243B8
:10089000014B34331A601CE000380240FFFFF6EAD7
:1008A000103000240030002000004742800E4742F4
:1008B0000024F40000127A0014000020FFFCFF0F57
:1008C0005C014742E0114742854A12688243844BEB
:1008D0001A60704739B1824A121D12680243804B78
:1008E0001B1D1A6006E07E4A121D126882437C4B73
:1008F0001B1D1A60704739B1794A0C3212680243E5
:10090000774B0C331A6006E0754A0C32126882434A
:10091000734B0C331A60704739B1714A1032126848
:1009200002436F4B10331A6006E06D4A10321268B2
:1009300082436B4B10331A60704739B1684A243ACE
:1009400012680243664B243B1A6006E0644A243A6C
:1009500012688243624B243B1A60704739B1604A87
:10096000203A126802435E4B203B1A6006E05C4A64
:10097000203A126882435A4B203B1A60704739B1C3
:10098000574A1C3A12680243554B1C3B1A6006E05A
:10099000534A1C3A12688243514B1C3B1A60704701
:1009A00039B14F4A143A126802434D4B143B1A6056
:1009B00006E04B4A143A12688243494B143B1A60D2
:1009C000704739B1464A103A12680243444B103B13
:1009D0001A6006E0424A103A12688243404B103BCC
:1009E0001A60704739B13E4A1C32126802433C4BD0
:1009F0001C331A6006E03A4A1C3212688243384BB4
:100A00001C331A60704739B1354A203212680243EC
:100A1000334B20331A6006E0314A20321268824399
:100A20002F4B20331A60704739B12D4A2432126897
:100A300002432B4B24331A6006E0294A2432126801
:100A40008243274B24331A60704739B1244A2C3231
:100A500012680243224B2C331A6006E0204A2C32E3
:100A6000126882431E4B2C331A60704739B11C4AFE
:100A70003032126802431A4B30331A6006E0184ACB
:100A8000303212688243164B30331A60704739B1E6
:100A9000134A273A12780243114B273B1A7006E09B
:100AA0000F4A273A127882430D4B273B1A70704742
:100AB0000B484030006840F08070094940310860C0
:100AC000704701460020064A283A12680A4201D0BF
:100AD000012000E000207047014926390870704766
:100AE00034380240016821F00101016000210160F9
:100AF00041608160C160016121214161DA49884220
:100B000004D13D21D84A103A91608CE0D649183181
:100B1000884205D14FF47461D34A103A916082E063
:100B2000D1493031884205D14FF47411CE4A103A80
:100B3000916078E0CC494831884205D14FF074612A
:100B4000C94A103A91606EE0C7496031884204D1C9
:100B5000C649C54A103AD16065E0C3497831884238
:100B600004D1C349C04A103AD1605CE0BE4990311B
:100B7000884204D1BF49BC4A103AD16053E0BA4917
:100B8000A831884205D14FF03D51B74A103AD160A3
:100B900049E0B949884204D13D21B74A083A116079
:100BA00041E0B5491831884205D14FF47461B24A29
:100BB000083A116037E0B0493031884205D14FF42E
:100BC0007411AD4A083A11602DE0AB4948318842B2
:100BD00005D14FF07461A84A083A116023E0A64994
:100BE0006031884204D1A149A34A121F11601AE062
:100BF000A1497831884204D19D499F4A121F116052
:100C000011E09D499031884204D19A499A4A121FB5
:100C1000116008E09849A831884204D14FF03D5155
:100C2000954A121F1160704710B500220268934B5D
:100C30001A40CC680B6823434C6923438C692343D7
:100C4000CC6923430C6A23434C6A23438C6A2343B5
:100C50004C6B23438C6B23431A430260426922F09E
:100C60000702D1E90B3423431A4342610B69436005
:100C70004B6883608B68C36010BD002101604160D8
:100C80008160C160016141618161C1610162416254
:100C90008162C162016341638163704721B102686F
:100CA00042F00102026003E0026822F001020260E9
:100CB000704721B1026842F40042026003E002681A
:100CC00022F400420260704721B1026842F0200223
:100CD000026003E0026822F0200202607047416077
:100CE00070470146486880B2704722B1036843F4F8
:100CF0000023036003E0036823F400230360016121
:100D0000704721B1026842F48022026003E0026869
:100D100022F48022026070470AB1016100E0C160E4
:100D20007047014600200A6812F4002F01D001200C
:100D300000E000207047014600200A6812F0010F11
:100D400001D0012000E000207047014600204A69E0
:100D500002F03800704730B503460A4600200024F0
:100D6000454DAB4202D24049103901E042491039A9
:100D700012F0005F01D04C6800E00C68404D2C4040
:100D8000144201D0012000E0002030BD02463A4B61
:100D90009A4202D23448103801E03748103811F036
:100DA000005F03D0364B0B40C36002E0344B0B4076
:100DB0008360704710B511F0800F09D022B14369EC
:100DC00043F08003436103E0436923F08003436100
:100DD00080290BD02AB1036801F01E04234303606D
:100DE00004E0036801F01E04A343036010BD70B566
:100DF00002460020002400251F4EB24202D21A4BA8
:100E0000103B01E01C4B103B1E4E314206D01E260B
:100E100006EAD124166806EA040502E0566906F0DF
:100E2000800511F0005F01D05C6800E01C68144E82
:100E300034400C4202D00DB1012000E0002070BD12
:100E400002460D4B9A4202D20748103801E00A4888
:100E5000103811F0005F03D0094B0B40C36002E073
:100E6000074B0B4083607047106002403D0000203C
:100E7000400F002000003D20106402403F801CF025
:100E80007D0F7D0F3C0F3C0F10B50446FE48844299
:100E900008D101210846FFF794FD00210120FFF74A
:100EA00090FD9DE0B4F1804F08D101210846FFF785
:100EB00077FD00210120FFF773FD91E0F3488442A4
:100EC00008D101210220FFF76BFD00210220FFF76E
:100ED00067FD85E0EE48844208D101210420FFF738
:100EE0005FFD00210420FFF75BFD79E0E9488442C3
:100EF00008D101210820FFF753FD00210820FFF74A
:100F00004FFD6DE0E448844208D101211020FFF735
:100F100047FD00211020FFF743FD61E0DF488442D8
:100F200008D101212020FFF73BFD00212020FFF701
:100F300037FD55E0DA48844208D101210220FFF74D
:100F400040FD00210220FFF73CFD49E0D5488442E6
:100F500009D101210804FFF734FD00214FF480304E
:100F6000FFF72FFD3CE0D048844209D1012148041D
:100F7000FFF727FD00214FF40030FFF722FD2FE09F
:100F8000CA48844209D101218804FFF71AFD0021D3
:100F90004FF48020FFF715FD22E0C548844208D1B8
:100FA00001214020FFF7FCFC00214020FFF7F8FC66
:100FB00016E0C048844208D101218020FFF7F0FCF0
:100FC00000218020FFF7ECFC0AE0BB48844207D1F7
:100FD00001218015FFF7E4FC0021A015FFF7E0FCDC
:100FE00010BD00220288A84B98420ED0AC4B98420C
:100FF0000BD0B0F1804F08D0A44B984205D0A44B41
:10100000984202D0A34B984204D14FF68F731A40F6
:101010004B881A43A04B984207D0A04B984204D06B
:101020004FF6FF431A400B891A4302804B68C36294
:101030000B880385944B984202D0994B984201D17A
:101040008B7A03860123838270474FF0FF31416022
:101050000021018001814180817270470185828277
:1010600070470A46002101884FF68F7319401143DB
:101070000180704741627047C16270470146486A0B
:1010800070470146088D704721B1028842F0020284
:10109000028004E002884FF6FD731A400280704718
:1010A00021B1028842F00402028004E002884FF677
:1010B000FB731A400280704721B1028842F080021F
:1010C000028004E002884FF67F731A400280704766
:1010D00002884FF6F7731A40028002880A430280A2
:1010E000704702884FF6FF431A40028002880A4385
:1010F0000280704721B1028842F00102028004E0C0
:1011000002884FF6FE731A400280704770B50024C3
:1011100000220023058C4FF6FE7635400584028CB4
:101120008388048B4FF68F752C40B51E2C400D889C
:101130002C43751E2A408D892A434D882A43524DDF
:10114000A84202D0564DA84213D14FF6F7752A4057
:10115000CD892A434FF6FB752A408D882A434FF6E6
:10116000FF652B404FF6FF552B400D8A2B434D8AD0
:101170002B43838004838D684563028470BD70B502
:10118000002400220023058C4FF6EF7635400584BD
:10119000028C8388048B48F6FF752C404FF6FF4580
:1011A0002C400D884FF6FF7606EA05252C434FF6B6
:1011B000DF752A408D8906EA05152A434D8806EA1F
:1011C00005152A43304DA84202D0354DA8421DD105
:1011D0004FF67F752A40CD894FF6FF7606EA051552
:1011E0002A434FF6BF752A408D8806EA05152A4323
:1011F0004FF6FF352B404FF2FF752B400D8A06EA64
:1012000085052B434D8A06EA85052B43838004839D
:101210008D688563028470BD70B5002400220023B0
:10122000058C4FF6FF6635400584028C8388848BDD
:101230004FF68F752C404FF6FC752C400D882C43D3
:101240004FF6FF552A408D894FF6FF7606EA0525B1
:101250002A434D8806EA05252A430B4DA84202D0B1
:101260000F4DA84238D14FF2FF752A40CD894FF675
:10127000FF7606EA05252A434FF6FF352A408D887A
:1012800006EA05252A4319E0000001400004004059
:1012900000080040000C0040001000400014004016
:1012A000000401400040014000440140004801406A
:1012B00000180040001C0040002000404EF6FF7562
:1012C0002B404DF6FF752B400D8A06EA05152B4382
:1012D0004D8A06EA05152B43838084838D68C56398
:1012E000028470BD70B5002200230024058C4EF6E8
:1012F000FF7635400584038C8488828B48F6FF7521
:101300002A404FF6FF452A400D884FF6FF7606EA41
:1013100005252A434DF6FF752B408D8906EA0535D4
:101320002B434D8806EA05352B43FE4DA84202D0DB
:10133000FD4DA84208D14BF6FF752C400D8A4FF6A3
:10134000FF7606EA85152C43848082838D680564C8
:10135000038470BD00210180418081808160818192
:10136000C18101824182704770B50346002000248C
:101370001846183001258D40ACB21D8CA5431D8444
:1013800009B108290AD100EB610005684FF68F7694
:10139000354005600568154305600FE00D1FC5F376
:1013A0004E052844056848F6FF7635400560056817
:1013B0004FF6FF7606EA02263543056070BD4163AD
:1013C000704781637047C1637047016470470A4684
:1013D0000021018B4FF68F73194011430183704731
:1013E0000A460021018B48F6FF7319404FF6FF7340
:1013F00003EA02231943018370470A460021818BC7
:101400004FF68F7319401143818370470A460021BC
:10141000818B48F6FF7319404FF6FF7303EA0223EE
:101420001943818370470A460021018B4FF6F773F9
:1014300019401143018370470A460021018B4FF286
:10144000FF7319404FF6FF7303EA02231943018328
:1014500070470A460021818B4FF6F77319401143FC
:10146000818370470A460021818B4FF2FF73194038
:101470004FF6FF7303EA02231943818370470A463C
:101480000021018B4FF6FB73194011430183704714
:101490000A460021018B4FF6FF3319404FF6FF73C8
:1014A00003EA02231943018370470A460021818B16
:1014B0004FF6FB7319401143818370470A460021A0
:1014C000818B4FF6FF3319404FF6FF7303EA022377
:1014D0001943818370470A460021018B4FF67F73C1
:1014E00019401143018370470A460021018BC1F363
:1014F0000E014FF6FF7303EA02231943018370477D
:101500000A460021818B4FF67F7319401143818376
:1015100070470A460021818BC1F30E014FF6FF731D
:1015200003EA02231943818370470A460021018C94
:101530004FF6FD7319401143018470470A4600219C
:10154000018C4FF6F77319401143018470470A4626
:101550000021018C4FF6DF7319404FF6FF7303EA49
:1015600002131943018470470A460021018C4FF68B
:101570007F7319404FF6FF7303EA02131943018486
:1015800070470A460021018C4FF6FF5319404FF671
:10159000FF7303EA02231943018470470A460021BE
:1015A000018C4FF2FF7319404FF6FF7303EA0223D9
:1015B0001943018470470A460021018C4DF6FF73E0
:1015C00019404FF6FF7303EA023319430184704751
:1015D00030B5002301248C40A3B2048C9C430484C6
:1015E000048C02FA01F5ADB22C43048430BD30B551
:1015F000002304248C40A3B2048C9C430484048CF8
:1016000002FA01F5ADB22C43048430BD828B4FF257
:10161000FF331A408283828B4FF6FF7303EA012364
:101620001A4382837047F0B50C461546002100220C
:101630000026078C4EF6FF7C07EA0C070784818B97
:10164000028C4FF6FF7707EA043640F6FF47394031
:101650004FF6FF7707EA052739434FF6FF7707EA8A
:101660000337394345F6FF773A4046F480573A430B
:1016700081830284F0BD828B4FF6F3731A4082831C
:10168000828B0A4382837047F0B50C4615460021D1
:1016900000220026078C4FF6FF6C07EA0C07078430
:1016A000818B028C4FF6FF7707EA04264FF60C7702
:1016B00039404FF6FF7707EA03172F4339434FF2BC
:1016C000FF573A4046F480773A4381830284F0BD65
:1016D000028B4FF2FF331A400283028B4FF6FF73E7
:1016E00003EA01231A4302837047F0B50C461546FE
:1016F000002100220026078C4FF6EF7C07EA0C073A
:101700000784018B028C4FF6FF7707EA041640F638
:10171000FF4739404FF6FF7707EA033739434FF663
:10172000FF7703E0000001400004014007EA0527BD
:1017300039434FF65F773A4046F010073A4301834A
:101740000284F0BD028B4FF6F3731A400283028BC2
:101750000A4302837047F0B50C461546002100226B
:10176000068C4FF6FE773E400684018B028C4FF6C6
:101770000C7631407E1C06EA03162E4331434FF6A9
:10178000F576324044F00106324301830284F0BD15
:1017900070B505460C46208850B92389A288618817
:1017A0002846FFF7D8FFE1882846FFF7CBFF25E062
:1017B000208804280AD12389A28861882846FFF757
:1017C00094FFE1882846FFF783FF17E02088082868
:1017D0000AD12389A28861882846FFF755FFE1884E
:1017E0002846FFF748FF09E02389A2886188284638
:1017F000FFF719FFE1882846FFF708FF70BD0021B9
:1018000001804180012181800021C18001817047D8
:101810002DE9F04105460C4600260127608808B9ED
:10182000022600E00026A088012801D1022700E05E
:1018300001272088A0B92389A28861882846FFF75C
:101840008AFFE1882846FFF77DFF23893A46314623
:101850002846FFF74AFFE1882846FFF739FF13E0E3
:101860002389A28861882846FFF73FFFE188284640
:10187000FFF72EFF23893A4631462846FFF76BFFD4
:10188000E1882846FFF75EFFBDE8F0810146486B1E
:1018900070470146886B70470146C86B7047014628
:1018A000086C70470A884B881A438B881A43CB8888
:1018B0001A430B891A434B891A438B891A43A0F8A0
:1018C000442070470021018041808180C1800181D6
:1018D00041818181704731B1B0F8442042F4004227
:1018E000A0F8442005E0B0F84420C2F30E02A0F8AE
:1018F0004420704721B1828842F00402828004E0D3
:1019000082884FF6FB731A408280704721B182882B
:1019100042F00102828004E082884FF6FE731A4092
:10192000828070471AB183890B43838102E08389E7
:101930008B43838170478182704702460020138A5F
:101940000B4201D0012000E000207047CA43028210
:10195000704730B50246002000230024158A05EAAE
:101960000103958905EA010413B10CB1012000E0DF
:10197000002030BDCA430282704741EA0203A0F84A
:10198000483070471AB183890B43838102E0838911
:101990008B438381704721B1828842F008028280A4
:1019A00004E082884FF6F7731A40828070470189FD
:1019B0004FF6F8721140018170470A4600210189F3
:1019C0004FF68F73194011430181704730B50446BB
:1019D0000D4629462046FFF7F0FF208940F007001A
:1019E000208130BD2DE9F04104460D4616461F46C4
:1019F000602D06D13B46012231462046FFF775FE99
:101A000005E03B46012231462046FFF7A4FE294669
:101A10002046FFF7D2FF208940F007002081BDE873
:101A2000F08130B50C4600210189C9B24FF6FF752F
:101A300005EA0325154325432943018130BD2DE9DE
:101A4000F04105460E4617469846002443463A465E
:101A500031462846FFF7E5FF2C894FF6F870044021
:101A600044F007044FF68F70044044F070042C815A
:101A7000BDE8F081F0B504460D4616461F463B46CC
:101A8000324629462046FFF7CCFF208940F48040AB
:101A90002081F0BD82884FF68F731A408280828841
:101AA0000A438280704702894FF6F8731A40028118
:101AB00002890A430281704702894FF67F731A40F8
:101AC000028102890A4302817047F0B50C4615462F
:101AD0001E460021002200230189028B038C4FF651
:101AE000F877394021434FF6FC473A4040F201175E
:101AF0003A434FF6DD773B404FF6FF7707EA06178C
:101B00002F433B43018102830384F0BD21B18288CE
:101B100042F08002828004E082884FF67F731A4090
:101B200082807047A0F850107047000010B504463E
:101B30009848844208D101210846FEF7FEFE0021A4
:101B40000120FEF7FAFE76E09348844208D1012195
:101B50000220FEF7F2FE00210220FEF7EEFE6AE010
:101B60008E48844208D101210420FEF7E6FE0021C0
:101B70000420FEF7E2FE5EE08948844208D101219C
:101B80000820FEF7DAFE00210820FEF7D6FE52E01C
:101B90008448844208D101211020FEF7CEFE0021A6
:101BA0001020FEF7CAFE46E07F48844208D101219A
:101BB0002020FEF7C2FE00212020FEF7BEFE3AE004
:101BC0007A48844208D101214020FEF7B6FE002168
:101BD0004020FEF7B2FE2EE07548844208D1012174
:101BE0008020FEF7AAFE00218020FEF7A6FE22E05C
:101BF0007048844208D101218015FEF79EFE002125
:101C0000A015FEF79AFE16E06B48844208D1012128
:101C10004015FEF792FE00216015FEF78EFE0AE0E9
:101C20006648844207D101210015FEF786FE002197
:101C30002015FEF782FE10BDF0B50A4600210023F4
:101C4000002400BF3DE0012505FA01F3156805EA0F
:101C500003049C4234D105684F000326BE40B543BF
:101C6000056015794E00B540066835430560157965
:101C7000012D02D01579022D16D185684F0003265B
:101C8000BE40B543856055794E00B5408668354302
:101C90008560456801268E40B54345604568967964
:101CA0008E40B6B235434560C5684F000326BE403E
:101CB000B543C560D5794E00B540C6683543C560AB
:101CC000491C1029BFD3F0BD4FF6FF710160002100
:101CD000017141718171C171704708B54FF4803253
:101CE0000092009A0A430092009AC261C161009A70
:101CF000C261C2690092C269009208BD024600201A
:101D000013690B4201D0012000E00020704701461A
:101D1000086980B270470246002053690B4201D027
:101D2000012000E0002070470146486980B27047FA
:101D300001837047418370470AB1018300E041830A
:101D400070474161704742694A4042617047F0B54F
:101D5000002300244D07ED0E02FA05F3CE1000F12A
:101D6000200555F826504E07F70E0F26BE40B54306
:101D7000CF1000F1200646F82750CE1000F12005C4
:101D800055F8265045EA0304CE1000F1200545F829
:101D90002640F0BD0000024000040240000802405E
:101DA000000C0240001002400014024000180240E3
:101DB000001C024000200240002402400028024093
:101DC00010B501210802FEF7FCFD00214FF48070E0
:101DD000FEF7F7FD10BD30B5024600200023506825
:101DE000F84C20400D790C6844EA052420435060EB
:101DF0009068F54C2040D1E903542C438D682C4366
:101E00004D7944EA450420439060D06A20F4700084
:101E10000C7D641EE4B2234340EA0350D06230BD1F
:101E200000210160017141718160C1600161012186
:101E3000017570470021E54A1168E54A01EA02018F
:101E4000D0E9002342EA0302836842EA0302C3683E
:101E500042EA030242EA0101DE4AC2F80413704773
:101E60000021016041608160C160704721B18268DA
:101E700042F00102826003E0826822F00102826087
:101E800070470A4600214168D34B19401143416015
:101E900070474162826270470A460021416821F022
:101EA0001F0111434160704738B1C849096841F4C6
:101EB0000001C84AC2F8041306E0C449096821F4C5
:101EC0000001C44AC2F80413704738B1BF49096819
:101ED00041F48001BF4AC2F8041306E0BB49096817
:101EE00021F48001BB4AC2F804137047F0B50446E0
:101EF0000D4600200021092D11DDE068A5F10A063C
:101F000006EB4607072606FA07F18843A5F10A06FD
:101F100006EB460603FA06F10843E0600CE0206990
:101F200005EB4507072606FA07F1884305EB45064A
:101F300003FA06F108432061072A0FDA606B561E88
:101F400006EB86071F2606FA07F18843561E06EBA6
:101F5000860605FA06F10843606322E00D2A0FDACF
:101F6000206BD61F06EB86071F2606FA07F188436B
:101F7000D61F06EB860605FA06F10843206310E03B
:101F8000E06AA2F10D0606EB86071F2606FA07F1A6
:101F90008843A2F10D0606EB860605FA06F1084312
:101FA000E062F0BD816841F0804181607047014688
:101FB00000208A6812F0804F01D0012000E000204C
:101FC000704721B1826842F48062826003E08268D7
:101FD00022F480628260704721B1826842F002027E
:101FE000826003E0826822F002028260704710B5CE
:101FF0000A4600210023416821F46041531E41EA52
:102000004331416010BD21B1426842F40062426038
:1020100003E0426822F40062426070470146C86CE7
:1020200080B270476D480068704721B1826842F401
:102030008072826003E0826822F48072826070475E
:1020400021B1826842F40072826003E0826822F467
:1020500000728260704738B15C49096841F40051F0
:102060005C4AC2F8041306E05849096821F400519B
:10207000584AC2F804137047F0B5044615460020CC
:1020800000220026092911DDE068A1F10A0707EB0B
:10209000470C072707FA0CF29043A1F10A0707EB58
:1020A000470703FA07F21043E0600CE0206901EBF8
:1020B000410C072707FA0CF2904301EB410703FAA2
:1020C00007F210432061A06BC0F30156EF1C06F12C
:1020D000010CA7EB0C0707EB870C1F2707FA0CF284
:1020E0009043EF1C06F1010CA7EB0C0707EB8707E9
:1020F00001FA07F21043A063F0BD10B50A460021B3
:102100000023816B21F44011531E41EA0351816386
:1021100010BD08B5002300930090009B0B44009372
:10212000009B1A6008BD0A460021816821F47021D5
:102130001143816070470A460021816821F44011F3
:10214000114381607047816841F48001816070476C
:10215000014600208A6812F4800F01D0012000E0BF
:102160000020704721B1426842F48062426003E07F
:10217000426822F480624260704721B1426842F4B2
:102180008052426003E0426822F48052426070470D
:1021900008B5024600200090009201F12800009B43
:1021A000184400900098006880B208BD10B50B4636
:1021B0000021D9B2012404FA01F18AB144680C4328
:1021C000446010E0FFFEFFFCFDF7FFC00423014068
:1021D000E030FCFF00200140FFFD3FFF08230140ED
:1021E00044688C43446010BD0246002013680B42D3
:1021F00001D0012000E000207047CA430260704710
:1022000070B502460020002300240B1255680126F9
:102210008E4005EA060415681D4202D00CB101206B
:1022200000E0002070BD00220A12D3430360704713
:1022300010B50446FA48844208D101211020FEF767
:10224000C0FB00211020FEF7BCFB57E0F54884429C
:1022500009D101214804FEF7A3FB00214FF400300F
:10226000FEF79EFB4AE0F048844209D10121880430
:10227000FEF796FB00214FF48020FEF791FB3DE036
:10228000EA48844209D10121C804FEF789FB0021F4
:102290004FF40020FEF784FB30E0E548844209D18A
:1022A00001210805FEF77CFB00214FF48010FEF7AA
:1022B00077FB23E0DF48844208D101212020FEF78C
:1022C00080FB00212020FEF77CFB17E0DA488442E7
:1022D00009D101218807FEF763FB00214FF0804000
:1022E000FEF75EFB0AE0D548844207D10121400594
:1022F000FEF756FB00216005FEF752FB10BD2DE9ED
:10230000FF4705460E460024A14600BFA046B089FF
:1023100000B100BF2C8A24F44054F08804432C827E
:10232000AC8941F20C608443B088318908437189DB
:1023300008430443AC81AC8A24F44074B08904435C
:10234000AC826846FEF7BDF9B548854202D0B9486F
:10235000854202D1DDF80C9001E0DDF80890A889F3
:1023600010F4004F08D009EBC90000EB09103168E8
:102370004900B0FBF1F707E009EBC90000EB0910D9
:1023800031688900B0FBF1F76420B7FBF0F004017D
:102390002009642101FB1078A88910F4004F08D0AF
:1023A000322000EBC800B0FBF1F000F0070004435E
:1023B00008E0322000EB08106421B0FBF1F000F0DF
:1023C0000F0004432C81BDE8FF874FF416510160D4
:1023D00000218180C18001810C2141810021818106
:1023E000704710B502460020108A20F470600B88F8
:1023F0004C8823438C882343CC8823431843108282
:1024000010BD0021018041808180C180704721B1D1
:10241000828942F40052828104E082894DF6FF7382
:102420001A4082817047028B02F47F420283028B42
:102430000A430283704721B1828942F400428281BB
:1024400003E08289C2F30E028281704721B1828A41
:1024500042F40062828204E0828A4FF2FF731A40E3
:1024600082827047C1F308028280704701468888E3
:10247000C0F308007047028A4FF6F0731A400282D8
:10248000028A0A430282704721B1828942F0020225
:10249000828104E082894FF6FD731A408281704781
:1024A00082894FF2FF731A40828182890A438281B6
:1024B0007047028A4FF6DF731A400282028A0A438B
:1024C0000282704721B1028A42F48042028204E013
:1024D000028A4BF6FF731A4002827047818941F0ED
:1024E00001018181704721B1828A42F00802828213
:1024F00004E0828A4FF6F7731A4082827047028B9B
:10250000D2B20283028B42EA01220283704721B1D8
:10251000828A42F02002828204E0828A4FF6DF73D0
:102520001A408282704721B1828A42F01002828270
:1025300004E0828A4FF6EF731A4082827047828AE3
:102540004FF6FB731A408282828A0A438282704766
:1025500021B1828A42F00202828204E0828A4FF62E
:10256000FD731A40828270471AB1838A0B438382BB
:1025700002E0838A8B4383827047F0B503460024D0
:10258000002600250020A1F510676A3F00D100BF9A
:102590001846C1F3421401F01F06012707FA06F599
:1025A000012C01D10C3004E0022C01D1103000E0EC
:1025B00014301AB107682F43076002E00768AF4381
:1025C0000760F0BD02460020B1F5007F00D100BFDA
:1025D00013880B4201D0012000E00020704701F475
:1025E0000072B2F5007F00D100BFCA43028070477D
:1025F00070B502460024002300250020A1F51066D6
:102600006A3E00D100BFC1F3421501F01F0301264D
:1026100006FA03F3012D13D19689334017E0000029
:10262000001001400044004000480040004C0040C1
:10263000005000400014014000780040007C004041
:10264000022D02D1168A334001E0968A33400C12E3
:10265000012606FA04F41688344013B10CB10120A7
:1026600000E0002070BD10B500220023A1F5106429
:102670006A3C00D100BF0A1201249440A3B2DC439B
:10268000048010BD10B50446F848844209D10121E8
:102690004805FEF785F900214FF40010FEF780F998
:1026A00018E0F348844209D101218805FEF778F942
:1026B00000214FF48000FEF773F90BE0ED488442EF
:1026C00008D10121C805FEF76BF900214FF4000085
:1026D000FEF766F910BD2DE9FF4704460D460026BA
:1026E000B1460427DFF89083A6884FF6C0700640F5
:1026F0006846FDF7E6FFDDF80880E048B8FBF0F03B
:102700001FFA80F946EA0906A68020884FF6FE7176
:10271000084020800026DA49286888420CD82868BA
:102720004000B8FBF0F087B2042F00DA04273E43E4
:1027300009F10100208427E0E888A0F53F41FF3936
:1027400006D1286800EB4000B8FBF0F087B209E042
:10275000286800EBC00101EB0010B8FBF0F087B275
:1027600047F480473805000D01D147F0010747F4D1
:10277000004006434FF4967009FB00F04FF47A7165
:1027800090FBF1F0401C2084A683208840F00100DB
:10279000208026884FF6F5300640A88869890843CE
:1027A00006432680A889298908432081BDE8FF8740
:1027B00041F288310160002181804BF6FF71C180B8
:1027C0000021018141814FF480418181704721B115
:1027D000028842F00102028004E002884FF6FE7394
:1027E0001A400280704729B1828C4FF6EF731A406D
:1027F000828403E0828C42F01002828470470A4691
:102800000021818C4FF6F073194002F00F03194339
:102810008184704721B1028842F48072028004E012
:1028200002884FF6FF631A400280704721B1028888
:1028300042F40072028004E002884FF6FF531A400F
:102840000280704712B141F0010101E001F0FE0188
:102850000182704721B1028842F48062028004E064
:1028600002884FF6FF331A40028070470A46002163
:1028700081894FF60173194002F0FE0319438181EB
:10288000704721B1828942F00102828104E082898D
:102890004FF6FE731A408281704721B1028842F0E0
:1028A0004002028004E002884FF6BF731A400280A3
:1028B000704721B1028842F40042028003E002889E
:1028C000C2F30E020280704721B9028842F08002F2
:1028D000028004E002884FF67F731A40028070473E
:1028E000B1F5804F05D0828B4BF6FF731A4082837F
:1028F00003E0828B42F4804282837047B1F5006F1F
:1029000004D1028842F40062028004E002884FF29F
:10291000FF731A4002807047B1F5005F04D102884E
:1029200042F40052028004E002884DF6FF731A4020
:102930000280704721B1028842F01002028004E058
:1029400002884FF6EF731A40028070470182704789
:102950000146088AC0B2704721B1028842F4805211
:10296000028004E002884EF6FF731A40028070472E
:10297000B1F5006F04D1028842F40062028004E0E5
:1029800002884FF2FF731A400280704721B102881B
:1029900042F02002028004E002884FF6DF731A4002
:1029A000028070470146088B0012704721B182886F
:1029B00042F40062828004E082884FF2FF731A4082
:1029C0008280704721B1828842F48052828004E084
:1029D00082884EF6FF731A408280704708B502461F
:1029E0000020009000920098084400900098008811
:1029F00008BD1AB183880B43838002E083888B4330
:102A00008380704770B50246002400250023002013
:102A1000958A138B1B0445EA030626F07F4404EADB
:102A200001068E4201D1012000E0002070BD10B5EA
:102A300001460020002300228B8A0A8B120443EAFD
:102A4000020424F07F4010BD0CB502460020002394
:102A50000193009300920B0F019321F07F41019BA2
:102A600083B1009B1433009310E000000054004039
:102A700000580040005C004000127A0040420F0005
:102A8000A0860100090C009B18330093009B1B6873
:102A90000B4201D0012000E000200CBD002221F0FB
:102AA0007F42D3438382704730B502460020002323
:102AB000948801F0E06504EA154321F07F41948A8F
:102AC0000C4202D00BB1012000E0002030BD0022FA
:102AD00021F07F42D34383827047000000BF010092
:102AE000A0F10100FBD1704705E02D2100E0491E57
:102AF0000029FCD1401E0028F7D1704706E04FF4B2
:102B00000B7100E0491E0029FCD1401E0028F6D1BF
:102B1000704706E041F2185100E0491E0029FCD13F
:102B2000401E0028F6D1704706E04DF6045100E043
:102B3000491E0029FCD1401E0028F6D1704705E04F
:102B4000094900E0491E0029FCD1401E0028F7D1A8
:102B5000704705E0054900E0491E0029FCD1401EF0
:102B60000028F7D170470000388B0800D84956007C
:102B700070B504460D4629462046FFF773FC00BF9A
:102B800080212046FFF71EFD0028F9D070BD10B54A
:102B9000044600BF20212046FFF714FD0028F9D08D
:102BA0002046FFF763FCC0B210BD70B506460C4668
:102BB000154600BF21783046FFF754FC00BF802146
:102BC0003046FFF7FFFC0028F9D0641C681E85B270
:102BD000002DEFD170BD70B506460C46154600BFFE
:102BE00000BF20213046FFF7EDFC0028F9D0304629
:102BF000FFF73CFC2070641C681E85B2002DEFD1ED
:102C000070BD000000B59BB001210846FDF72AFE0B
:102C100001218805FDF726FE01214FF44070FDF7E4
:102C20007BFE3020009003208DF8040000208DF8FA
:102C3000070069466748FEF7FFFF00200C906648D2
:102C40000D9066480E9000200F908020109000207C
:102C500011904FF480601290400013908000149007
:102C60004011159000021690002017900120189036
:102C7000002019901A900CA95948FDF7D5FF0121A1
:102C80005748FEF70BF84FF000700C9055480D9028
:102C900055480E9000200F90802010900020119039
:102CA0004FF4806012904000139080001490401107
:102CB0001590000216900020179001201890002017
:102CC00019901A900CA946484830FDF7ADFF012134
:102CD00043484830FDF7E2FF002002900390049043
:102CE0004FF4A060059002A8FFF7A4F8002006901A
:102CF00001208DF81C008DF81D00002008900A901E
:102D000001208DF82C0006A933484C38FFF763F8F2
:102D10000020069001208DF81C008DF81D00002079
:102D200008900A9001208DF82C0006A92D484C38F7
:102D3000FFF751F802230122042127484C38FFF7FE
:102D4000D5F802230122052126484C38FFF7CEF89A
:102D5000012121484C38FFF773F9012121484C38F3
:102D6000FFF76EF901211C484C38FFF75EF901218D
:102D70001C484C38FFF759F9012117484C38FFF728
:102D800075F8012117484C38FFF770F812484C3895
:102D9000FFF708F913484C38FFF704F91BB000BDE2
:102DA00030B5024600200023002400BF09E00B4D8F
:102DB00035F810502B440C4D35F810502C44451C60
:102DC000E8B28842F3DBB3FBF1F51580B4FBF1F513
:102DD000558030BD000002404C20014060000020C2
:102DE000106402404C2101406001002000B597B002
:102DF00001214805FDF77FFD01214805FDF732FD62
:102E000001210220FDF72EFD04220821FA48FEF7D9
:102E10009EFF04220921F848FEF799FF4FF48070C5
:102E2000159002208DF858008DF8590001208DF87A
:102E30005A0000208DF85B0015A9EF48FEF7FCFE54
:102E40004FF40070159002208DF858008DF859004D
:102E500001208DF85A0000208DF85B0015A9E64886
:102E6000FEF7EAFE0B208DF8500000208DF851008F
:102E70008DF8520001208DF8530014A8FDF7ABFA2D
:102E800011208DF8500000208DF851008DF852006F
:102E900001208DF8530014A8FDF79DFAD749D848B2
:102EA000FDF774FF0021D648FDF7F8FED448FDF782
:102EB00019FE4FF000700190D2480290002003905C
:102EC000402004904FF6FF700590002006904FF4CC
:102ED000806007900020089009900A904FF44030DD
:102EE0000B9004200C9003200D9000200E900F906A
:102EF00001A9C348FDF798FEC349C1489038FDF7C2
:102F000045FF0021BE489038FDF7C8FEBC48903808
:102F1000FDF7E8FD4FF000700190BA4802900020E4
:102F20000390402004904FF6FF700590002006901B
:102F30004FF4806007900020089009900A904FF4A9
:102F400040300B9004200C9003200D9000200E9038
:102F50000F9001A9AA489038FDF766FE01221021C2
:102F6000A748FDF727FF01221021A5489038FDF75B
:102F700021FF0020ADF844004BF6FF70ADF846008D
:102F80000020ADF848004FF48060ADF84A00000121
:102F9000ADF84C009D48109001219A481038FFF779
:102FA00016FC10A997481038FFF795FB01219548AA
:102FB0001038FFF7FBFC17B000BD02E0C820FFF798
:102FC000B3FDFBE737B590B004460D4612A8904913
:102FD000086001218B481038FFF71CFC4FF6FF708A
:102FE0008C49086007E08B490868411E894A1160D6
:102FF00008B9FFF7E2FF884982481038FFF702FD61
:103000000028F0D0012221467E481038FFF71AFC34
:103010004FF6FF707F49086007E07E490868411E4F
:103020007C4A116008B9FFF7C8FF7B49491C754805
:103030001038FFF7E7FC0028EFD04FF00070019048
:10304000704802900395002004909DF84800059078
:10305000002006904FF480600790002008900990AF
:103060000A904FF440300B9004200C9003200D90F8
:1030700000200E900F9001A961489038FDF7D4FD13
:10308000012160481038FFF79DFC01215C48903811
:10309000FDF704FE4FF6FF705E49086007E05D49EA
:1030A0000868411E5B4A116008B9FFF786FF9DF86A
:1030B00048000028F3DC012013B030BD37B590B0D4
:1030C00005460C469DF84800401EC0B2129012A85A
:1030D000524908604FF6FF704E49086007E04D49BD
:1030E0000868411E4B4A116008B9FFF766FF4FF4AC
:1030F000003144481038FFF7A7FC0028EFD1012128
:1031000040481038FFF786FB4FF6FF7041490860D2
:1031100007E040490868411E3E4A116008B9FFF7C0
:103120004CFF3D4937481038FFF76CFC0028F0D0C1
:103130004FF6FF70374908600022294631481038A1
:10314000FFF780FB4FF6FF703249086007E0314916
:103150000868411E2F4A116008B9FFF72EFF304959
:1031600028481038FFF74EFC0028F0D02178254879
:103170001038FFF7EBFB4FF6FF702649086007E0B9
:1031800024490868411E234A116008B9FFF715FF5A
:103190002349891E1B481038FFF734FC0028EFD064
:1031A0009DF8480000283DDD4FF000700190154863
:1031B0000290601C0390402004909DF84800059008
:1031C000002006904FF4806007900020089009903E
:1031D0000A904FF440300B9004200C9003200D9087
:1031E00000200E900F9001A90548FDF71DFD01215B
:1031F0000348FDF753FD19E00004024000003D20A4
:10320000A0600240105400403D008010801A06006B
:103210002800002024000020010003002C000020D2
:10322000820007000121FC48FFF700FB4FF6FF700A
:10323000FA49086007E0F9490868411EF74A116039
:1032400008B9FFF7BAFE9DF848000028F3DC01201A
:1032500013B030BD7FB590B005460E46144613A896
:10326000EF4908604FF6FF70EC49086007E0EB4952
:103270000868411EE94A116008B9FFF79EFE4FF445
:103280000031E548FFF7E0FB0028F0D10121E248DA
:10329000FFF7C0FA4FF6FF70E049086007E0DF492A
:1032A0000868411EDD4A116008B9FFF786FEDD4956
:1032B000D948FFF7A7FB0028F1D000222946D648BD
:1032C000FFF7C0FA4FF6FF70D449086007E0D34912
:1032D0000868411ED14A116008B9FFF76EFED24955
:1032E000CD48FFF78FFB0028F1D03146CA48FFF7E1
:1032F0002DFB4FF6FF70C949086007E0C749086811
:10330000411EC64A116008B9FFF757FEC749C248B7
:10331000FFF79AFB0028F1D00121BF48FFF77AFAA6
:103320004FF6FF70BD49086007E0BC490868411EC0
:10333000BA4A116008B9FFF740FEBA49B648FFF72C
:1033400061FB0028F1D001222946B348FFF77AFA41
:103350009DF84C00022852DA4FF6FF70AF49086022
:1033600007E0AE490868411EAC4A116008B9FFF792
:1033700024FEAE49891EA848FFF766FB0028F0D05E
:103380000021A548FFF766FAA348183000880121FC
:10339000A148FFF74BFA4FF6FF70A049086007E01D
:1033A0009E490868411E9D4A116008B9FFF705FE55
:1033B0009E493C319848FFF747FB0028F0D09648DB
:1033C000FFF7C6FA20709DF84C00401EC0B2139063
:1033D0004FF6FF709149086007E090490868411E68
:1033E0008E4A116008B9FFF7E8FD8B48008810F499
:1033F000007FF2D101218848FFF72CFA3EE04FF61A
:10340000FF708649086007E084490868411E834AC6
:10341000116008B9FFF7D1FD8249491C7E48FFF7CA
:10342000F1FA0028F0D04FF0007001907A48103087
:1034300002900394002004909DF84C000590002019
:1034400006904FF4806007900020089009900A9041
:103450004FF440300B9004200C9003200D9000207E
:103460000E900F9001A97248FDF7DEFB01216A481A
:10347000FFF7A8FA01216E48FDF710FC4FF6FF7028
:103480006649086007E065490868411E634A1160A3
:1034900008B9FFF792FD9DF84C000028F3DC0120ED
:1034A00014B070BD7FB590B004460E46154613A803
:1034B000604908604FF6FF705849086007E05749B7
:1034C0000868411E554A116008B9FFF776FD4FF4B0
:1034D00000315148FFF7B8FA0028F0D101214E48D9
:1034E000FFF798F94FF6FF704C49086007E04B4929
:1034F0000868411E494A116008B9FFF75EFD494955
:103500004548FFF77FFA0028F1D04FF6FF70434996
:103510000860002221464048FFF794F94FF6FF70FB
:103520003E49086007E03D490868411E3B4A11607A
:1035300008B9FFF742FD3C493748FFF763FA002816
:10354000F1D031463448FFF701FA4FF6FF703349A6
:10355000086007E031490868411E304A116008B927
:10356000FFF72BFD3049891E2B48FFF74BFA002847
:10357000F0D04FF000700190274810300290039572
:10358000402004909DF84C000590002006904FF4D8
:10359000806007900020089009900A904FF4403016
:1035A0000B9004200C9003200D9000200E900F90A3
:1035B00001A91F489030FDF737FB01211C489030CE
:1035C000FDF76CFB4FF6FF701449086007E01349E4
:1035D0000868411E114A116008B9FFF7EEFC9DF81A
:1035E0004C000028F3DC012014B070BD10B5124966
:1035F0000F489030FDF7AFFBB0B300210C4890307E
:10360000FDF74CFB0C490A489030FDF7BFFB4FF625
:10361000FF700249086019E00054004024000020B7
:1036200028000020010003008200070004000010B1
:10363000106002402C00002000002020174908687C
:10364000411E164A116008B9FFF7B7FC1449154826
:10365000FFF7FAF90028F1D001211248FFF7E6F848
:10366000002011490968087010BD10B50C491C31C3
:103670000E48FDF770FB80B101210A48FFF7D6F82C
:1036800000210A48FDF70AFB05491C310748FDF7F0
:103690007DFB002006490968087010BD2400002049
:1036A00004000010005400402C0000201060024074
:1036B0002800002010B5FCF7F0FD00F099FC00F0A8
:1036C000B8FCFFF79FFA00F09DFE00F075FF00F0D8
:1036D000CBFCA648008801280ED10020A449088010
:1036E0004FF4FA531A461946184600F0C4FD00BFBD
:1036F0009E4800880128FBD04FF47A631A46194689
:10370000184600F0B8FD0120994908804FF00500E7
:10371000FFF715FA00F063FF10BD70B504460020F6
:10372000944908804FF00500FFF713FA01209249F1
:10373000A1F8B802914991ED000AF8EE400A00EEB6
:10374000104AB8EE400A80EE801ABCEEC10A10EEB4
:10375000100A411EB1F1807F01D301211BE0411EFF
:103760004FF0E022516151170F22002907DA1307A9
:103770001E0E834B01F00F052D1F5E5503E013074E
:103780001D0E804B5D5400BF00214FF0E02291617F
:1037900007211161002109B100BFFEE700BF7A488F
:1037A00000780628FBD170BD1CB5002400200090D5
:1037B00001900120754908806F49A1F8B8026C4951
:1037C000088070E072480078844209D0704804781C
:1037D0006748008808B9012000E00020644908809B
:1037E0006C4890ED030ADFED6C0A20EE200ABCEE77
:1037F000C00A10EE100AC0B28DF80000654890EDC6
:10380000030ADFED650A20EE200ABCEEC00A10EEC6
:10381000100AC0B24FEA20208DF801005D4890EDFB
:10382000040ADFED5D0A20EE200ABCEEC00A10EEAD
:10383000100AC0B28DF80200564890ED040ADFED80
:10384000560A20EE200ABCEEC00A10EE100AC0B2E2
:103850004FEA20208DF803004E4890ED050ADFED79
:103860004E0A20EE200ABCEEC00A10EE100AC0B2CA
:103870008DF80400474890ED050ADFED470A20EE79
:10388000200ABCEEC00A10EE100AC0B24FEA202097
:103890008DF805004FF000008DF806008DF8070048
:1038A000684600F06AFE3148008801288AD137490D
:1038B00008803149A1F8B8022D4908801CBDFFF7E6
:1038C000F9FE4FF4FA70FFF728FFFFF76DFF4CE0A9
:1038D0002E48008808B9012000E000202B4908800C
:1038E0004FF00500FFF72BF92348B0F8BC0208B9E8
:1038F000012000E00020254908804FF00500FFF777
:103900001EF91D48B0F8B80208B9012000E00020F7
:10391000184908804FF00500FFF711F91648B0F874
:10392000B80208B9012000E00020124908804FF0D9
:103930000500FFF704F91048B0F8B40208B90120F7
:1039400000E000200A4908804FF00500FFF7F7F873
:103950000948B0F8B40208B9012000E00020044989
:1039600008804FF00500FFF7EAF8B1E7088240420F
:10397000B4024142B802414200004142000000202E
:1039800018ED00E000E400E031000020BC024142FC
:10399000390000206002002000007A4400B585B0A4
:1039A0001421684601F002FAFE480068401CFD49F7
:1039B000086008460068B0F5FA7F17D1002008605B
:1039C000F9480078401CF8490870084600783C28FF
:1039D0000CD100200870F5480078401CF3490870AD
:1039E000084600783C2801D100200870684600F0A5
:1039F000DDFEEC4800680521B0FBF1F201FB12008E
:103A000018B94821EA4801F036F8BDF80000E94944
:103A1000C988401A00B2E7490880BDF80200098948
:103A2000401A00B2E3494880BDF804004989401AB1
:103A300000B2E0498880BDF80600DF49C988401A15
:103A400000B2DD490880BDF808000989401A00B2BB
:103A5000D9494880BDF80A004989401A00B2D649C0
:103A60008880BDF80C00D549C988484300B2D349C5
:103A70000880BDF80E000989484300B2CF4948804C
:103A8000BDF810004989484300B2CC498880BDF890
:103A90001200CB490880CB480078072870D2DFE8B5
:103AA00000F06F040E9BFDFCFB00C7480088012856
:103AB00001D1022000E00520C249087068E2C34835
:103AC000008808B9012000E00020C0490880C048F3
:103AD00000684FF4FA71B0FBF1F00004000C04D060
:103AE00001282BD0022875D14BE04FF4FA7001F079
:103AF000D1F9B84908604FF4FA7001F0CBF9B64932
:103B000008604FF4FA7001F0C5F9B44908604FF449
:103B1000FA71B048006801F049F94FF4FA71AE4803
:103B2000006801F043F94FF4FA71AC48006801F005
:103B30003DF94FF4FA70A64908604BE09E49B1F98F
:103B40000000FA22A349096801F0ACF89A490880FC
:103B5000B1F90200FA22A049096801F0A3F89649D8
:103B60004880B1F90400FA229C49096801F09AF8EA
:103B70009149888096480068401C9549086029E072
:103B8000F0E19448006801F05DF99348006801F0A5
:103B900059F99248006801F055F98748C08886496C
:103BA0000988084400B28449C880084600894988C9
:103BB000084400B280490881084640898988084441
:103BC00000B27D49488100208149086003207D4979
:103BD000087000BF00BFDBE17C48008808B9012005
:103BE00000E0002079490880794800684FF4FA71B4
:103BF000B0FBF1F00004000C04D001282BD0022807
:103C00007AD14EE04FF4FA7001F044F9714908603E
:103C10004FF4FA7001F03EF96F4908604FF4FA7002
:103C200001F038F96D4908604FF4FA71694800688D
:103C300001F0BCF84FF4FA716748006801F0B6F87B
:103C40004FF4FA716548006801F0B0F84FF4FA706B
:103C50005F49086050E05749B1F90000FA225D4918
:103C6000096801F01FF853490880B1F90200FA22EF
:103C70005949096801F016F84E494880B1F9040025
:103C8000FA225649096801F00DF84A4988805048DF
:103C90000068401C4E4902E0DDE03CE02EE0086098
:103CA0002AE04C48006801F0CDF84B48006801F06C
:103CB000C9F84A48006801F0C5F83E48C0883D4947
:103CC0000988084400B23B49C880084600894988F1
:103CD000084400B237490881084641898088A0F528
:103CE0000050084400B23349488100203849086038
:103CF00004203449087000BF00BF49E13348008800
:103D000008B9012000E00020304908804FF005008C
:103D10002C4908703CE12748B0F9000000EE100A79
:103D2000B8EEC00ADFED2E0A20EE200A214880ED11
:103D3000030AB0F9020000EE100AB8EEC00ADFED87
:103D4000280A20EE200A1B4880ED040AB0F904007E
:103D500000EE100AB8EEC00ADFED210A20EE200ABC
:103D6000144880ED050A1448B0F9000000EE100A6E
:103D7000B8EEC00ADFED1B0A20EE200A0E4880EDE7
:103D8000030AB0F9020000EE100AB8EEC00ADFED37
:103D9000150A20EE200A084880ED040AB0F9040054
:103DA00022E0000034000020390000203A0000200A
:103DB000C002002060020020780200209002002053
:103DC0004C0000203100002008824042BC024142E9
:103DD000480000203C00002040000020440000205B
:103DE000FEFFFF3890C1793D00EE100AB8EEC00A20
:103DF0005FED040A20EE200A734880ED050A73483F
:103E0000B0F9000000EE100AB8EEC00ADFED700A4B
:103E100020EE200A6D4880ED030AB0F9020000EEA2
:103E2000100AB8EEC00ADFED6A0A20EE200A6748E1
:103E300080ED040AB0F9040000EE100AB8EEC00AE2
:103E4000DFED630A20EE200A604880ED050A0620B7
:103E5000604908709CE06048B0F9000000EE100A6C
:103E6000B8EEC00A5FED220A20EE200A5A4880ED23
:103E7000030AB0F9020000EE100AB8EEC00A5FEDC6
:103E8000280A20EE200A544880ED040AB0F9040004
:103E900000EE100AB8EEC00A5FED2F0A20EE200AED
:103EA0004D4880ED050A4848B0F9000000EE100AC0
:103EB000B8EEC00A5FED350A20EE200A424880EDD8
:103EC000030AB0F9020000EE100AB8EEC00A5FED76
:103ED0003B0A20EE200A3C4880ED040AB0F90400B9
:103EE00000EE100AB8EEC00A5FED420A20EE200A8A
:103EF000354880ED050A3548B0F9000000EE100A9B
:103F0000B8EEC00ADFED320A20EE200A2F4880ED1D
:103F1000030AB0F9020000EE100AB8EEC00ADFEDA5
:103F20002C0A20EE200A294880ED040AB0F904008A
:103F300000EE100AB8EEC00ADFED250A20EE200AD6
:103F4000224880ED050A2548B0F9000000EE100A6D
:103F5000B8EEC00ADFED220A20EE200A1F4880EDED
:103F6000010A15E001201F4908801F49A1F8B80285
:103F70001E4908800BE01B48008808B9012000E0BA
:103F80000020184908804FF00A00FEF7E2FDF2E732
:103F900000BF05B000BD10B5FFF767FB10BD10B541
:103FA000FFF724FB10BD00BFFEE700BFFEE700BF28
:103FB000FEE700BFFEE700BFFEE700BFFEE700BF71
:103FC000FEE700BFFEE7000078020020900200201C
:103FD0009A99993E31000020600200204C00002098
:103FE00004AD403BBC02414200004142B4024142A8
:103FF0001CB501210420FCF735FC4FF46040009013
:1040000001208DF8040000208DF8060002208DF8B4
:10401000050000208DF8070069460E48FDF70CFEEC
:1040200001200D4908800D49A1F8BC020C49088007
:104030001CBD1CB501210220FCF714FC04200090DB
:1040400000208DF804008DF8070069460548FDF74B
:10405000F3FD1CBD00080240B8024142000041428D
:10406000B40241420004024000B58BB00121072098
:10407000FCF7F8FB01210720FCF73DFC01220021A1
:10408000DA48FDF764FE01221146D848FDF75FFECD
:1040900001220221D548FDF75AFE01220321D3480F
:1040A000FDF755FE02220621D048FDF750FE022200
:1040B0000721CE48FDF74BFE02220021CC48FDF738
:1040C00046FE02220121CA48FDF741FE02220621D6
:1040D000C748FDF73CFE02220721C548FDF737FE21
:1040E000CF20099002208DF8280003208DF82900A8
:1040F00000208DF82A0001208DF82B0009A9BB486B
:10410000FDF79AFDC320099002208DF828000320B6
:104110008DF8290000208DF82A0001208DF82B0051
:1041200009A9B348FDF788FD4FF08040FCF7ACFECD
:10413000B048FCF7A9FEB048FCF7A6FE42F20F70AB
:1041400007901420ADF818000020ADF82000ADF85D
:104150001A0006A94FF08040FCF743FF06A9A548C6
:10416000FCF73FFF06A9A448FCF73BFF6020ADF831
:1041700004000120ADF806004FF47A60039000209F
:10418000ADF8100001A94FF08040FCF7BFFF01A976
:104190004FF08040FCF7F3FF01A94FF08040FDF79E
:1041A0003BF801A94FF08040FDF79CF801A9914828
:1041B000FCF7ACFF01A98F48FCF7E1FF01A98D488E
:1041C000FDF72AF801A98B48FDF78CF801A98A4868
:1041D000FCF79CFF01A98848FCF7D1FF0821C8061D
:1041E000FDF721F90821C806FDF726F90821C806C0
:1041F000FDF72FF90821C806FDF734F908217D489D
:10420000FDF711F908217B48FDF716F908217948D7
:10421000FDF71FF908217748FDF724F908217648B2
:10422000FDF701F908217448FDF706F90121880717
:10423000FCF742FF01216F48FCF73EFF01216E4869
:10424000FCF73AFF01218807FCF754FF0121694878
:10425000FCF750FF01216848FCF74CFF4FF47A60EF
:10426000644934310860091D0860091D0860091D92
:1042700008600BB000BD10B5B0F5FA5F02DD4FF479
:10428000FA5004E0B0F57A6F01DA4FF47A60B1F5D4
:10429000FA5F02DD4FF4FA5104E0B1F57A6F01DA0A
:1042A0004FF47A61B2F5FA5F02DD4FF4FA5204E09E
:1042B000B2F57A6F01DA4FF47A62B3F5FA5F02DD94
:1042C0004FF4FA5304E0B3F57A6F01DA4FF47A63EE
:1042D000484C34342060241D2160241D2260241D9C
:1042E000236010BDFCB504460D4616461F4600204F
:1042F0000090019042F21070844201DD044602E019
:10430000002C00DA002442F21070854201DD0546DF
:1043100002E0002D00DA002542F21070864201DD35
:10432000064602E0002E00DA002642F210708742B4
:1043300001DD074602E0002F00DA002700EE104AF8
:10434000F8EEC00A9FED2D1A9FED2D0A00EE810AAE
:10435000BCEEC00A10EE100A80B2ADF8000000EE0C
:10436000105AF8EEC00A9FED251A9FED250A00EEBF
:10437000810ABCEEC00A10EE100A80B2ADF802004D
:1043800000EE106AF8EEC00A9FED1C1A9FED1C0AA1
:1043900000EE810ABCEEC00A10EE100A80B2ADF841
:1043A000040000EE107AF8EEC00A9FED141A9FED9B
:1043B000140A00EE810ABCEEC00A10EE100A80B2A8
:1043C000ADF80600BDF806C00FFA8CF3BDF804C0C6
:1043D0000FFA8CF2BDF802C00FFA8CF1BDF800C0E4
:1043E0000FFA8CF0FFF747FFFCBD7047000002405A
:1043F000000402400004004000080040CDCCCC3E48
:1044000000007A4500B587B001210220FCF72AFAA6
:1044100001218804FCF76FFA07220A216448FDF79E
:1044200096FC07220B216248FDF791FC4FF4806057
:10443000059002208DF8180000208DF81A00012048
:104440008DF81B0002208DF8190005A95848FDF7CA
:10445000F3FB4FF40060059002208DF81800002057
:104460008DF81A0001208DF81B0002208DF819002C
:1044700005A94F48FDF7E0FB4FF4E1300190002023
:10448000ADF80800ADF80A00ADF80C00ADF810006A
:104490000C20ADF80E0001A94648FDF730FF0121C0
:1044A0004448FDF7B4FF40214248FEF798F807B0B2
:1044B00000BD10B5044604E021783E48FEF758FBE5
:1044C000641C20780028F7D110BDF0B589B00646ED
:1044D0000F461546202101A800F068FC01AC2B46D0
:1044E00001AA3946304600F001FB04E0217831484A
:1044F000FEF73EFB641C20780028F7D109B0F0BD20
:1045000070B504460D462A4621462A48FEF74DFB63
:1045100070BD10B5044600BF2648FEF738FB20707A
:10452000641C14F8010C0028F6D1207010BD70B581
:1045300004460D462A4621461E48FEF74CFB70BD38
:1045400030B502460B464FF6FF70002112E0555C75
:10455000684000240AE010F0010F04D04AF201057F
:1045600085EA600000E04010651CACB2072CF2DD6B
:104570004D1CA9B29942EADB30BD38B50446002093
:10458000009008212046FFF7DBFF0546E8B28DF8D2
:104590000000280A8DF80100082221460548FEF790
:1045A00004FB022269460348FEF7FFFA38BD00000B
:1045B00000040240004800401CB501210420FCF723
:1045C00051F90820009000208DF804008DF80700B4
:1045D00069462F48FDF730FBFEF708FC1CBD10B5FF
:1045E00000202C490880488088800720C8809220BD
:1045F00008816FF4917048819FED270A084680ED8D
:10460000030A9FED250A80ED040A9FED230A80ED41
:10461000050A00202149088048808880C8800881D8
:1046200048819FED1D0A084680ED030A9FED1A0A96
:1046300080ED040A9FED180A80ED050A0020184954
:10464000088048808880C880088148819FED120AD0
:10465000084680ED030A9FED100A80ED040A9FEDE5
:104660000E0A80ED050A00200E4908804CF67B708A
:1046700048809FED090A084680ED010A00BF00F05E
:1046800015F80128FBD1084800F0CBF910BD000057
:1046900000080240600200200000000078020020B4
:1046A000900200204C000020C002002010B586B00F
:1046B0000024002005907A4A07CA02AB07C3784954
:1046C0000C3103C9CDE90001012305AA7521D020D1
:1046D000FEF7C0FD9DF81400682802D0002006B047
:1046E00010BD0A20FEF720FA00240EE002A800EB1D
:1046F000440200EB440041780123D020FEF7D2FEB3
:104700000A20FEF711FA601CC4B2062CEEDB01236E
:1047100005AA00211820FEF79DFD9DF814004828E9
:1047200001D00020DBE79DF8011001236A46182024
:10473000FEF7B8FE0A20FEF7F7F9032305AA1021B9
:104740001820FEF787FD0A20FEF7EEF99DF8140009
:104750008030C0EB001040F3D7105249C8809DF85C
:1047600015008030C0EB001040F3D71008819DF891
:1047700016008030C0EB001040F3D71048819DF840
:10478000031001230DF102021820FEF78BFE0A2010
:10479000FEF7CAF99DF80510012301AA1820FEF7BB
:1047A00081FE0A20FEF7C0F9012098E710B588B015
:1047B0000446142103A800F0F9FA00200290012019
:1047C00001900E2303AA3B21D020FEF743FD0123D5
:1047D00002AA02211820FEF73DFD9DF808000128DD
:1047E0000CD106230DF11A0203211820FEF732FD29
:1047F000012301AA0A211820FEF754FE60889DF8C3
:104800000C1040EA012000B220809DF80F009DF8B6
:104810000E1040EA012000B260809DF811009DF862
:10482000101040EA012000B2A0809DF815009DF80C
:10483000141040EA012000B2E0809DF817009DF8B6
:10484000161040EA012000B220819DF819009DF861
:10485000181040EA012000B260819DF81A009DF80E
:104860001B1040EA012000B2A0819DF81C009DF8B9
:104870001D1040EA012000B2E0819DF81E009DF865
:104880001F1040EA012000B220829DF813009DF81D
:10489000121040EA012000B2608208B010BD000092
:1048A000004F0008900200202DE9F0410446608985
:1048B000A169A1EB0020E0616289E16901FB02F0DE
:1048C000C11700EB5121C91501F5FA612162218957
:1048D000E26901FB02F0C11700EB5161CA11A18826
:1048E00002EB0141CA17C4E90A12E188E26901FB3F
:1048F00002F0C11700EB11610A12618802EBC131AD
:10490000CA17C4E90C120023D4E90C1C6069A0FB8F
:10491000016803FB018100FB0C114FF400123046CB
:1049200000F00CFAA16A451A4FEAE57005EB504019
:104930004FEAE030A06394ED080AB8EEC00ADFED5C
:10494000670A80EE201A84ED0F1A94ED0E0AB8EE75
:10495000C00ADFED620A80EE201A84ED101A604969
:10496000A06BA0EB010000EE100AB8EEC00ADFED6C
:104970005D0A20EE200A84ED110ABDE8F0817CB5C5
:1049800005460C4600200190009001226946EE2069
:10499000FEF794FB032201A9EE20FEF713FB9DF81E
:1049A000040000049DF8051040EA01209DF806105F
:1049B000084381B205F1100040F824107CBD38B5E1
:1049C0000446009401226946EE20FEF777FB38BDCD
:1049D0007FB50546002400200390009001900290CE
:1049E00000BF1BE004F1A200C0B20390012203A9A2
:1049F000EE20FEF763FB684600EB44010222EE2046
:104A0000FEF7E0FA684600EB440040781DF8141009
:104A100040EA0121601C25F81010C4B2062CE1DB2D
:104A20007FBD38B504461E20009001226946EE2065
:104A3000FEF744FB0A20FEF777F82046FFF7C8FF91
:104A40000A20FEF771F84820FFF7B9FF0A20FEF7A9
:104A50006BF801212046FFF792FF5820FFF7AFFFC8
:104A60000A20FEF761F802212046FFF788FF204662
:104A7000FFF71AFF38BD70B505460C4600261A48E8
:104A8000007820B1012809D002281FD112E0204669
:104A9000FFF795FF01201449087017E0012128460F
:104AA000FFF76DFF44F01000FFF789FF02200E4969
:104AB00008700BE002212846FFF761FF2046FFF750
:104AC0007EFF012601200849087000BF00BF012EAB
:104AD00002D12846FFF7E8FE70BD00000000C84282
:104AE000D58B01007C611841540000202DE9F04372
:104AF000B1B081460D4616461F460024C02101A8CC
:104B000000F054F94FF00108B9F1080F12D009DC98
:104B1000B9F1000F49D0B9F1010F7DD0B9F1020F01
:104B200042D106E0B9F10A0F05D0B9F1100FF7D163
:104B300002E000BF00BF00BF002408E0B7FBF8F0B0
:104B400001A941F8240008FB09F8601CC4B2AC427A
:104B5000F4DB002424E001A850F8241001AA601C12
:104B600052F8200000FB1910C1B2281B401E31541E
:104B7000281B401E305C092808DD281B401E305CC5
:104B80003730C1B2281B401E315407E0281B401E9D
:104B9000305C3030C1B2281B401E3154601CC4B29E
:104BA000AC42D8DB002070556BE0002F35DA2D20A9
:104BB0003070F843471C01240BE0B7FBF8F1601E8E
:104BC00001AA42F8201008EB88004FEA4008601C58
:104BD000C4B2681C8442F0DB012417E0601E01A906
:104BE00011F8200011F8241001EB8101A0EB410025
:104BF000C1B2281B401C3154281B401C305C303093
:104C0000C1B2281B401C3154601CC4B2681C8442D1
:104C1000E4DB0021315432E032E02B2030700124FB
:104C20000BE0B7FBF8F1601E01AA42F8201008EB78
:104C300088004FEA4008601CC4B2681C8442F0DB64
:104C4000012417E0601E01A911F8200011F82410BA
:104C500001EB8101A0EB4100C1B2281B401C315483
:104C6000281B401C305C3030C1B2281B401C315422
:104C7000601CC4B2681C8442E4DB0021315400E0B3
:104C800000BF00BF31B0BDE8F0830146002001B98C
:104C9000704701E0421C90B211F8013B002BF9D1A2
:104CA00000BFF5E770B504460B4600210020002543
:104CB00000BF06E04E1C33F8166023F811604E1C4E
:104CC000F1B2561E8E42F5DC23F81640002104E0B6
:104CD00033F9116035444E1CF1B29142F8DB95FB7B
:104CE000F2F630B270BDF0B504460B46002100204C
:104CF0000026002500BF06E04F1C33F8177023F88C
:104D000011704F1CF9B2571E8F42F5DC23F8174083
:104D1000002105E033F911C04F1C0CFB0755F9B217
:104D20009142F7DB02F1010C02FB0CF707EBD77C99
:104D3000CCF34F0695FBF6F738B2F0BD2DE9F05FE6
:104D40000546002092469B468846064681464024FA
:104D50001BE0284641464746224600F041F85346AC
:104D60005A46C01A914110D311461846224600F007
:104D700028F82D1A67EB01084F4622460120002132
:104D800000F01FF817EB00094E41201EA4F10104AA
:104D9000DFDC484631462A464346BDE8F09FD2B2A2
:104DA00001E000F8012B491EFBD270470022F6E714
:104DB00010B513460A4604461946FFF7F0FF204691
:104DC00010BD202A04DB203A00FA02F100207047CF
:104DD0009140C2F1200320FA03F319439040704739
:104DE000202A04DB203A21FA02F00021704721FA40
:104DF00002F3D040C2F120029140084319467047A7
:104E0000064C074D06E0E06840F0010394E8070017
:104E100098471034AC42F6D3FBF7BAF9144F0008A8
:104E2000344F000802E008C8121F08C1002AFAD156
:104E300070477047002001E001C1121F002AFBD11A
:104E40007047000010B5002821D0114B001F002230
:104E5000196803E0814203D80A4649680029F9D15C
:104E600052B11368841A9C4204D10068184410603F
:104E7000104602E0506000E0186039B102680B1A79
:104E8000934203D10B681A4402604968416010BD27
:104E900058000020F0B50B30154D20F0070100241C
:104EA000144A0FE003688B420BD38B4205D95E1A7C
:104EB00043184768C3E9006700E04368136002C015
:104EC00004E0021D10680028ECD12046002802D121
:104ED000286808B10020F0BD064A07481060074A5C
:104EE000121A22F00702C0E9002401202860D7E747
:104EF0005C000020580000200C0300200805002062
:104F0000016B031A181B081C3237006A0F0A000ACB
:104F1000010A0000344F000800000020600000007B
:104F2000244E0008944F000860000020A8080000EC
:104F3000344E0008007A030A000000000000000060
:104F4000010203040607080900000000010203042F
:104F50000102030406070809FFFF0000000000002B
:104F6000000000000101000000000000000000003F
:104F70000000000000000000000000000000000031
:104F80000000000000000000000000000000000021
:044F9000000000001D
:040000050800018965
:00000001FF
